:020000040000fa
:080000000001040000000000f3
:020000040000fa
:100008009401000094010000940100009401000094
:100018009401000094010000940100009401000084
:1000280094010000940100009401000064050000a0
:1000380094010000940100007a050000940100007a
:1000480094010000a804000094010000940100003d
:100058009401000094010000940100009401000044
:100068009401000094010000940100009401000034
:100078009401000094010000940100009401000024
:10008800f0040000940100009401000094010000b5
:100098009401000094010000940100009401000004
:1000a80094010000940100009401000094010000f4
:1000b80094010000940100009401000094010000e4
:1000c80094010000940100009401000094010000d4
:1000d80094010000940100009401000094010000c4
:1000e80094010000940100009401000094010000b4
:0800f8009401000094010000d6
:020000040000fa
:100108009401000094010000940100009401000093
:100118009401000094010000940100009401000083
:10012800940100009401000094010000640500009f
:1001380094010000940100007a0500009401000079
:1001480094010000a804000094010000940100003c
:100158009401000094010000940100009401000043
:100168009401000094010000940100009401000033
:100178009401000094010000940100009401000023
:10018800f0040000940100009401000094010000b4
:100198009401000094010000940100009401000003
:1001a80094010000940100009401000094010000f3
:1001b80094010000940100009401000094010000e3
:1001c80094010000940100009401000094010000d3
:1001d80094010000940100009401000094010000c3
:1001e80094010000940100009401000094010000b3
:0801f8009401000094010000d5
:020000040000fa
:10020000af8520000eff20000e01880000000000d6
:1002100000012000200288000c000700206c200054
:100220000100200011000700000020000000e00095
:10023000020032000000020000000000aa050200d7
:10024000000000000040da000000fe004440a90069
:10025000000020000000e000030032000000200049
:10026000a00188004440a800000006009101880019
:10027000800078000000eb0015003700e2804000ad
:1002800032a0b4009101ba00e280400032a0b40074
:100290009102ba00e280400032a0b4000002eb00fc
:1002a000472bde00f507b200602ce10004003a00a5
:1002b0000059eb008301e900fdff3e000400370018
:1002c0006128e100010032000082eb000400070019
:1002d0001101ba000200e000e8ff3a000000060049
:1002e0003159ba008301e9000c0032002159ba00eb
:1002f0008301e900080032000400e00003003a0036
:10030000e280400032a0b400f5ff370011d9ba00f6
:100310008301e900faff3a008100e800e180400033
:1003200032a0b400000006000040da000000fe0029
:020000040000fa
:100330000000fa0034032000a41088000d42a80039
:100340008d20a80075108000c4ff2f000482620079
:10035000741088000de2a8000f42a8000080fa0087
:10036000000006000000fa0034032000f4108800aa
:100370008f00a800c5108000c4ff2f000482620017
:10038000c410880017e2a8001942a8000080fa00f3
:10039000000006000200fa00000f780000000000d4
:1003a000751080000410200004826200e00f5200eb
:1003b000fbff32006410800066026200e60f52000c
:1003c00003003a001e027800841088000300370002
:1003d000f40f20001e026200841088000080fa00e2
:1003e000000006000200fa00000f78000000000084
:1003f000c51080000410200004826200e00f52004b
:10040000fbff3200b410800066026200e60f52006b
:1004100003003a001e027800d41088000300370061
:10042000f40f20001e026200d41088000080fa0041
:10043000000006000400fa00100798009e029000d9
:1004400004712200110009008482d80000027800a3
:10045000044f78009e4278000582fb000403b00040
:1004600004007800cbff07001e4078008082fb006c
:10047000048f2d0004aab900040278009e029000a7
:1004800004824200140798009e029000843e2000df
:10049000110009008482d80000027800044f78001f
:1004a0009e4278000582fb000403b000040078003f
:1004b000b8ff07001e4078008082fb0084c12f0037
:1004c00004aab900040278009e029000048242004f
:1004d000140798009e0290004406200011000900b5
:1004e0008482d80000027800044f78009e42780091
:1004f0000582fb000403b00004007800a5ff07009c
:100500001e4078008082fb00c4f92f0004aab900c5
:10051000040278009e0290000482420014079800b2
:100520009e029000a4002000110009008482d800df
:1005300000027800044f78009e4278000582fb009c
:100540000403b0000400780092ff07001e4078000a
:100550008082fb0064ff2f0004aab9000402780027
:100560009e02900004824200140798001e02900030
:100570000403b0000400780086ff07000080fa0042
:10058000000006000400fa00100798009e02900088
:1005900004712200110009008482d8000002780052
:1005a000044f78009e4278000582fb000403b000ef
:1005b000040078008bff07001e4078008082fb005b
:1005c000048f2d0004aab900040278009e02900056
:1005d00004824200140798009e029000843e20008e
:1005e000110009008482d80000027800044f7800ce
:1005f0009e4278000582fb000403b00004007800ee
:1006000078ff07001e4078008082fb0084c12f0025
:1006100004aab900040278009e02900004824200fd
:10062000140798009e029000440620001100090063
:100630008482d80000027800044f78009e4278003f
:100640000582fb000403b0000400780065ff07008a
:100650001e4078008082fb00c4f92f0004aab90074
:10066000040278009e029000048242001407980061
:100670009e029000a4002000110009008482d8008e
:1006800000027800044f78009e4278000582fb004b
:100690000403b0000400780052ff07001e407800f9
:1006a0008082fb0064ff2f0004aab90004027800d6
:1006b0009e02900004824200140798001e029000df
:1006c0000403b0000400780046ff07000080fa0031
:1006d000000006000000fa00881f7800000478007f
:1006e00005003700184278000402fb000804e80007
:1006f0000400780027ff070018427800e04f5200fe
:10070000f8ff3a004f0478000080fa00000006006d
:100710000200fa00000f7800060037001e02780081
:10072000144278000402fb001e0fe8000400780069
:100730002cff07001e02780014427800e04f5200a0
:10074000f6ff3a000080fa00000006000000fa0000
:100750008485200014427800044078000080fa006c
:10076000000006000200fa00848520001442780090
:10077000e04f520002003a0000c2eb0014003700c4
:1007800064852000144278000483fb00058020006b
:1007900085024300154f78000442e80004407800c9
:1007a00056e8b7006485200014427800f443b20094
:1007b0000440780056e8b700848520001442780091
:1007c0000442e9000440780058e8b7001e4278006f
:1007d000044078000080fa00000006000400fa00df
:1007e000881f7800100798000042eb00044f780043
:1007f000080037009e4278000582fb009e029000b0
:1008000004844200d7ff070000427800044c7800bf
:100810001e4fe8008485200014427800e04f52000b
:10082000f4ff3a001e427800044078004f0478003c
:100830000080fa00000006000200fa00004f780075
:100840000000000075108000041020000482620087
:10085000e00f5200fbff320064108000660262006d
:10086000e60f520004003a009e4278000582fb0029
:1008700084108800030037009e4278000582fb0048
:10088000841088000080fa00000006000200fa00d0
:10089000004f780000000000c51080000410200008
:1008a00004826200e00f5200fbff3200b4108000af
:1008b00066026200e60f520004003a009e42780091
:1008c0000582fb00d4108800030037009e427800a8
:1008d0000582fb00d41088000080fa0000000600aa
:1008e0000200fa00000f7800050037001e027800b1
:1008f0001442780004407800cfff07001e0fe80084
:100900001e02780014427800e04f5200f7ff3a00d0
:100910000080fa00000006000200fa00000f7800d4
:10092000050037001e027800144278000440780069
:10093000d6ff07001e0fe8001e0278001442780060
:10094000e04f5200f7ff3a000080fa000000060076
:10095000801f7800849fbe00869fbe000000fa00c2
:100960008520a90074852000144278008483fb0050
:1009700095108000854278000680200006834300a1
:10098000054b78000442e8000440780057e8b700bf
:100990007485200014427800f443b20004407800cb
:1009a00057e8b7008585200095427800f4c3b3006e
:1009b00084cf520005003e00848520001442780058
:1009c0000442e8000440780058e8b7000080fa00cc
:1009d0004f03be004f02be004f00780000400600eb
:1009e000801f7800849fbe00869fbe000000fa0032
:1009f0008700a90074852000144278008483fb00de
:100a0000e5108000854278000680200006834300c0
:100a1000054b78000442e8000440780057e8b7002e
:100a20007485200014427800f443b200044078003a
:100a300057e8b7008585200095427800f4c3b300dd
:100a400084cf520005003e008485200014427800c7
:100a50000442e8000440780058e8b7000080fa003b
:100a60004f03be004f02be004f007800004006005a
:100a70000200fa00000f78000002eb000442880038
:100a8000000000009e02780004428000848f520023
:100a9000fcff3e000080fa00000006000200fa00a1
:100aa000000f78000002eb001442880000000000f4
:100ab0009e02780014428000848f5200fcff3e00aa
:100ac0000080fa0000000600841f78000000fa0091
:100ad0000002eb0004088800044280000402e800e1
:100ae000044288008460a9000080fa004f02780068
:100af00000400600841f78000000fa000002eb00ae
:100b000034088800144280000402e800144288007f
:100b100084c0a9000080fa004f027800004006005f
:100b20000000fa00d602a800d622a8007442800075
:100b300004007800ceff0700d602a900d622a90043
:100b40006442800004007800c9ff07000080fa00ba
:100b5000000006004e00fa00502798006127980018
:100b60000042eb00444798008400200034079800be
:100b70003e0290006a0212004407980060000700dd
:100b80006a000700d202a900d222a900de02a90051
:100b9000de22a900c722a900c742a900e001200067
:100ba000beff0700e222a8000002eb00040f78005d
:100bb000130037000002eb00140798000b00370009
:100bc000d602a800d622a8003e009000a8ff070089
:100bd000d602a900d622a9004e009000a4ff07006b
:100be0001e0290000402e800140798009e02900084
:100bf00034062000848f5200f1ff34001e0fe800fd
:100c0000740c20009e027800848f5200e9ff3400ab
:100c100000fa2000a1ff0700e222a900803e200088
:100c20009eff0700e202a8000002eb00040f78001c
:100c3000130037000002eb00140798000b00370088
:100c4000d602a800d622a8003e00900088ff070028
:100c5000d602a900d622a9004e00900084ff07000a
:100c60001e0290000402e800140798009e02900003
:100c700034062000848f5200f1ff34001e0fe8007c
:100c8000740c20009e027800848f5200e9ff34002b
:100c900000fa200081ff0700e202a900803821004d
:100ca0007eff0700bfff37000600fa00200798000c
:100cb0000002eb00040f78000b0037000002eb008d
:100cc00014079800030037001e0290000402e80099
:100cd000140798009e029000743e2000848f5200fa
:100ce000f9ff36001e0fe8002e0290009e027800e9
:100cf000848f5200f1ff39000080fa0000000600e6
:100d00000000fa000002eb000408880064042000e0
:100d1000140888000421a9008460a9008c60a80040
:100d200005e1a8000080fa00000006000000fa00bb
:100d30000002eb003408880004f4210064088800f5
:100d40001021a90084c0a9008cc0a80011e1a8004e
:100d50000080fa00000006000000fa000002eb002c
:100d60005408880064042000740888001221a90037
:100d700084e0a9008ce0a80013e1a9000080fa003b
:040d80000000060069
:020000040000fa
:100d840040080000100000000000000050080000af
:100d94000600000002000000000000000000000047
:100da4000008000040000000000000005608000099
:100db4000400000002000000000000000000000029
:040dc400000000002b
:020000040000fa
:0200000401f009
:04000000e5bf000058
:020000040000fa
:0200000401f009
:04000400ff7f00007a
:020000040000fa
:0200000401f009
:04000800ffff0000f6
:020000040000fa
:0200000401f009
:04001400ffff0000ea
:020000040000fa
:0200000401f009
:04001800ffff0000e6
:00000001FF
